{
  "_format": "hh-sol-artifact-1",
  "contractName": "AdvanceRental",
  "sourceName": "contracts/AdvanceRental.sol",
  "abi": [
    {
      "inputs": [],
      "stateMutability": "nonpayable",
      "type": "constructor"
    },
    {
      "anonymous": false,
      "inputs": [
        {
          "indexed": false,
          "internalType": "address",
          "name": "lessor",
          "type": "address"
        },
        {
          "indexed": false,
          "internalType": "uint256",
          "name": "assetID",
          "type": "uint256"
        }
      ],
      "name": "addedAsset",
      "type": "event"
    },
    {
      "anonymous": false,
      "inputs": [
        {
          "indexed": false,
          "internalType": "address",
          "name": "complainedAbout",
          "type": "address"
        },
        {
          "indexed": false,
          "internalType": "string",
          "name": "description",
          "type": "string"
        },
        {
          "indexed": false,
          "internalType": "uint256",
          "name": "complaintIndex",
          "type": "uint256"
        },
        {
          "indexed": false,
          "internalType": "bool",
          "name": "ended",
          "type": "bool"
        }
      ],
      "name": "addedComplaint",
      "type": "event"
    },
    {
      "anonymous": false,
      "inputs": [
        {
          "indexed": false,
          "internalType": "address",
          "name": "renter",
          "type": "address"
        },
        {
          "indexed": false,
          "internalType": "uint256",
          "name": "leaseID",
          "type": "uint256"
        }
      ],
      "name": "addedRent",
      "type": "event"
    },
    {
      "anonymous": false,
      "inputs": [
        {
          "indexed": false,
          "internalType": "address",
          "name": "whom",
          "type": "address"
        },
        {
          "indexed": false,
          "internalType": "uint256",
          "name": "approvementID",
          "type": "uint256"
        },
        {
          "indexed": false,
          "internalType": "bool",
          "name": "ended",
          "type": "bool"
        }
      ],
      "name": "approvement",
      "type": "event"
    },
    {
      "anonymous": false,
      "inputs": [
        {
          "indexed": false,
          "internalType": "address",
          "name": "renter",
          "type": "address"
        },
        {
          "indexed": false,
          "internalType": "uint256",
          "name": "leaseID",
          "type": "uint256"
        },
        {
          "indexed": false,
          "internalType": "bool",
          "name": "status",
          "type": "bool"
        }
      ],
      "name": "breakedLease",
      "type": "event"
    },
    {
      "inputs": [
        {
          "internalType": "string",
          "name": "_kind",
          "type": "string"
        },
        {
          "internalType": "bool",
          "name": "_status",
          "type": "bool"
        },
        {
          "internalType": "string",
          "name": "_assetAddress",
          "type": "string"
        }
      ],
      "name": "addAsset",
      "outputs": [
        {
          "internalType": "uint256",
          "name": "",
          "type": "uint256"
        }
      ],
      "stateMutability": "nonpayable",
      "type": "function"
    },
    {
      "inputs": [
        {
          "internalType": "uint256",
          "name": "approvementID",
          "type": "uint256"
        },
        {
          "internalType": "bool",
          "name": "result",
          "type": "bool"
        }
      ],
      "name": "approve",
      "outputs": [],
      "stateMutability": "nonpayable",
      "type": "function"
    },
    {
      "inputs": [
        {
          "internalType": "address",
          "name": "",
          "type": "address"
        },
        {
          "internalType": "uint256",
          "name": "",
          "type": "uint256"
        }
      ],
      "name": "approvements",
      "outputs": [
        {
          "internalType": "address",
          "name": "lessor",
          "type": "address"
        },
        {
          "internalType": "address",
          "name": "renter",
          "type": "address"
        },
        {
          "internalType": "uint256",
          "name": "leaseID",
          "type": "uint256"
        },
        {
          "internalType": "string",
          "name": "description",
          "type": "string"
        },
        {
          "internalType": "bool",
          "name": "approve",
          "type": "bool"
        },
        {
          "internalType": "bool",
          "name": "ended",
          "type": "bool"
        }
      ],
      "stateMutability": "view",
      "type": "function"
    },
    {
      "inputs": [
        {
          "internalType": "address",
          "name": "",
          "type": "address"
        },
        {
          "internalType": "uint256",
          "name": "",
          "type": "uint256"
        }
      ],
      "name": "assets",
      "outputs": [
        {
          "internalType": "string",
          "name": "kind",
          "type": "string"
        },
        {
          "internalType": "bool",
          "name": "status",
          "type": "bool"
        },
        {
          "internalType": "string",
          "name": "assetAddress",
          "type": "string"
        }
      ],
      "stateMutability": "view",
      "type": "function"
    },
    {
      "inputs": [
        {
          "internalType": "address",
          "name": "_renter",
          "type": "address"
        },
        {
          "internalType": "address",
          "name": "_lessor",
          "type": "address"
        },
        {
          "internalType": "uint256",
          "name": "_leaseID",
          "type": "uint256"
        }
      ],
      "name": "breakLease",
      "outputs": [
        {
          "internalType": "bool",
          "name": "",
          "type": "bool"
        }
      ],
      "stateMutability": "nonpayable",
      "type": "function"
    },
    {
      "inputs": [
        {
          "internalType": "address",
          "name": "_complainAbout",
          "type": "address"
        },
        {
          "internalType": "address",
          "name": "_lessor",
          "type": "address"
        },
        {
          "internalType": "address",
          "name": "_renter",
          "type": "address"
        },
        {
          "internalType": "uint256",
          "name": "_leaseID",
          "type": "uint256"
        },
        {
          "internalType": "string",
          "name": "_description",
          "type": "string"
        }
      ],
      "name": "complain",
      "outputs": [],
      "stateMutability": "nonpayable",
      "type": "function"
    },
    {
      "inputs": [
        {
          "internalType": "uint256",
          "name": "_complaintIndex",
          "type": "uint256"
        },
        {
          "internalType": "bool",
          "name": "result",
          "type": "bool"
        }
      ],
      "name": "complaintSolver",
      "outputs": [],
      "stateMutability": "nonpayable",
      "type": "function"
    },
    {
      "inputs": [
        {
          "internalType": "address",
          "name": "",
          "type": "address"
        }
      ],
      "name": "isblacklisted",
      "outputs": [
        {
          "internalType": "bool",
          "name": "",
          "type": "bool"
        }
      ],
      "stateMutability": "view",
      "type": "function"
    },
    {
      "inputs": [
        {
          "internalType": "address",
          "name": "",
          "type": "address"
        },
        {
          "internalType": "uint256",
          "name": "",
          "type": "uint256"
        }
      ],
      "name": "leases",
      "outputs": [
        {
          "internalType": "address",
          "name": "lessor",
          "type": "address"
        },
        {
          "internalType": "uint256",
          "name": "assetID",
          "type": "uint256"
        },
        {
          "internalType": "bool",
          "name": "status",
          "type": "bool"
        },
        {
          "internalType": "uint256",
          "name": "startTime",
          "type": "uint256"
        },
        {
          "internalType": "uint256",
          "name": "endTime",
          "type": "uint256"
        }
      ],
      "stateMutability": "view",
      "type": "function"
    },
    {
      "inputs": [],
      "name": "owner",
      "outputs": [
        {
          "internalType": "address",
          "name": "",
          "type": "address"
        }
      ],
      "stateMutability": "view",
      "type": "function"
    },
    {
      "inputs": [
        {
          "internalType": "address",
          "name": "_lessor",
          "type": "address"
        },
        {
          "internalType": "uint256",
          "name": "_assetID",
          "type": "uint256"
        },
        {
          "internalType": "uint256",
          "name": "_startTime",
          "type": "uint256"
        },
        {
          "internalType": "uint256",
          "name": "_endTime",
          "type": "uint256"
        }
      ],
      "name": "rent",
      "outputs": [
        {
          "internalType": "uint256",
          "name": "",
          "type": "uint256"
        }
      ],
      "stateMutability": "nonpayable",
      "type": "function"
    }
  ],
  "bytecode": "0x608060405234801561001057600080fd5b50336000806101000a81548173ffffffffffffffffffffffffffffffffffffffff021916908373ffffffffffffffffffffffffffffffffffffffff160217905550613194806100606000396000f3fe608060405234801561001057600080fd5b50600436106100a95760003560e01c80638068e77d116100715780638068e77d1461017c57806388369ad7146101985780638da5cb5b146101c8578063e6e1718f146101e6578063ed6a596514610216578063f56e45ea14610246576100a9565b806328be48ac146100ae578063432fc7ea146100de5780634a055ed91461011257806351eb27c01461012e578063747442d314610160575b600080fd5b6100c860048036038101906100c391906123b3565b61027b565b6040516100d59190612421565b60405180910390f35b6100f860048036038101906100f3919061243c565b610b88565b60405161010995949392919061249a565b60405180910390f35b61012c60048036038101906101279190612633565b610c08565b005b6101486004803603810190610143919061243c565b610f47565b60405161015793929190612749565b60405180910390f35b61017a600480360381019061017591906127ba565b6110ab565b005b610196600480360381019061019191906127ba565b6113ed565b005b6101b260048036038101906101ad91906127fa565b6119a7565b6040516101bf9190612861565b60405180910390f35b6101d0611de1565b6040516101dd919061287c565b60405180910390f35b61020060048036038101906101fb9190612897565b611e05565b60405161020d9190612861565b60405180910390f35b610230600480360381019061022b9190612922565b61205d565b60405161023d9190612421565b60405180910390f35b610260600480360381019061025b919061243c565b61207d565b6040516102729695949392919061294f565b60405180910390f35b600083838173ffffffffffffffffffffffffffffffffffffffff163373ffffffffffffffffffffffffffffffffffffffff161415806102e657508073ffffffffffffffffffffffffffffffffffffffff163373ffffffffffffffffffffffffffffffffffffffff1614155b610325576040517f08c379a000000000000000000000000000000000000000000000000000000000815260040161031c90612a03565b60405180910390fd5b6000600360008873ffffffffffffffffffffffffffffffffffffffff1673ffffffffffffffffffffffffffffffffffffffff168152602001908152602001600020858154811061037857610377612a23565b5b90600052602060002090600502016040518060a00160405290816000820160009054906101000a900473ffffffffffffffffffffffffffffffffffffffff1673ffffffffffffffffffffffffffffffffffffffff1673ffffffffffffffffffffffffffffffffffffffff168152602001600182015481526020016002820160009054906101000a900460ff1615151515815260200160038201548152602001600482015481525050905060011515816040015115151461046d576040517f08c379a000000000000000000000000000000000000000000000000000000000815260040161046490612a9e565b60405180910390fd5b600081608001514261047f9190612af7565b90506000811215610499578061049490612b3a565b61049b565b805b90506213c6808112156105e857600082604001901515908115158152505081600360008a73ffffffffffffffffffffffffffffffffffffffff1673ffffffffffffffffffffffffffffffffffffffff168152602001908152602001600020878154811061050b5761050a612a23565b5b906000526020600020906005020160008201518160000160006101000a81548173ffffffffffffffffffffffffffffffffffffffff021916908373ffffffffffffffffffffffffffffffffffffffff1602179055506020820151816001015560408201518160020160006101000a81548160ff02191690831515021790555060608201518160030155608082015181600401559050507f04c8f243608e6383a128987e09669b73e6dc88a11b4fb00ad845f705efe40cbf338760016040516105d593929190612b82565b60405180910390a1600194505050610b7f565b6105f06121b8565b87816000019073ffffffffffffffffffffffffffffffffffffffff16908173ffffffffffffffffffffffffffffffffffffffff168152505088816020019073ffffffffffffffffffffffffffffffffffffffff16908173ffffffffffffffffffffffffffffffffffffffff168152505086816040018181525050600081608001901515908115158152505060008160a00190151590811515815250508873ffffffffffffffffffffffffffffffffffffffff163373ffffffffffffffffffffffffffffffffffffffff16036108e5576040518060400160405280601a81526020017f52656e7465722077616e6e6120656e6420746865206c656173650000000000008152508160600181905250600460008973ffffffffffffffffffffffffffffffffffffffff1673ffffffffffffffffffffffffffffffffffffffff16815260200190815260200160002081908060018154018082558091505060019003906000526020600020906005020160009091909190915060008201518160000160006101000a81548173ffffffffffffffffffffffffffffffffffffffff021916908373ffffffffffffffffffffffffffffffffffffffff16021790555060208201518160010160006101000a81548173ffffffffffffffffffffffffffffffffffffffff021916908373ffffffffffffffffffffffffffffffffffffffff1602179055506040820151816002015560608201518160030190816108139190612dc5565b5060808201518160040160006101000a81548160ff02191690831515021790555060a08201518160040160016101000a81548160ff02191690831515021790555050507f83165fbcb53550458ffabd006f18aa35bfa1266b304b8d123e1706c6df71d058886001600460008c73ffffffffffffffffffffffffffffffffffffffff1673ffffffffffffffffffffffffffffffffffffffff168152602001908152602001600020805490506108c79190612e97565b60006040516108d893929190612b82565b60405180910390a1610b3b565b8773ffffffffffffffffffffffffffffffffffffffff163373ffffffffffffffffffffffffffffffffffffffff1603610b3a576040518060400160405280601a81526020017f4c6573736f722077616e6e6120656e6420746865206c656173650000000000008152508160600181905250600460008a73ffffffffffffffffffffffffffffffffffffffff1673ffffffffffffffffffffffffffffffffffffffff16815260200190815260200160002081908060018154018082558091505060019003906000526020600020906005020160009091909190915060008201518160000160006101000a81548173ffffffffffffffffffffffffffffffffffffffff021916908373ffffffffffffffffffffffffffffffffffffffff16021790555060208201518160010160006101000a81548173ffffffffffffffffffffffffffffffffffffffff021916908373ffffffffffffffffffffffffffffffffffffffff160217905550604082015181600201556060820151816003019081610a6c9190612dc5565b5060808201518160040160006101000a81548160ff02191690831515021790555060a08201518160040160016101000a81548160ff02191690831515021790555050507f83165fbcb53550458ffabd006f18aa35bfa1266b304b8d123e1706c6df71d058896001600460008d73ffffffffffffffffffffffffffffffffffffffff1673ffffffffffffffffffffffffffffffffffffffff16815260200190815260200160002080549050610b209190612e97565b6000604051610b3193929190612b82565b60405180910390a15b5b7f04c8f243608e6383a128987e09669b73e6dc88a11b4fb00ad845f705efe40cbf33886000604051610b6f93929190612b82565b60405180910390a1600095505050505b50509392505050565b60036020528160005260406000208181548110610ba457600080fd5b9060005260206000209060050201600091509150508060000160009054906101000a900473ffffffffffffffffffffffffffffffffffffffff16908060010154908060020160009054906101000a900460ff16908060030154908060040154905085565b82848173ffffffffffffffffffffffffffffffffffffffff163373ffffffffffffffffffffffffffffffffffffffff16141580610c7157508073ffffffffffffffffffffffffffffffffffffffff163373ffffffffffffffffffffffffffffffffffffffff1614155b610cb0576040517f08c379a0000000000000000000000000000000000000000000000000000000008152600401610ca790612a03565b60405180910390fd5b610cb861221e565b87816000019073ffffffffffffffffffffffffffffffffffffffff16908173ffffffffffffffffffffffffffffffffffffffff168152505086816020019073ffffffffffffffffffffffffffffffffffffffff16908173ffffffffffffffffffffffffffffffffffffffff168152505085816040019073ffffffffffffffffffffffffffffffffffffffff16908173ffffffffffffffffffffffffffffffffffffffff16815250508481606001818152505083816080018190525060008160c0019015159081151581525050600581908060018154018082558091505060019003906000526020600020906006020160009091909190915060008201518160000160006101000a81548173ffffffffffffffffffffffffffffffffffffffff021916908373ffffffffffffffffffffffffffffffffffffffff16021790555060208201518160010160006101000a81548173ffffffffffffffffffffffffffffffffffffffff021916908373ffffffffffffffffffffffffffffffffffffffff16021790555060408201518160020160006101000a81548173ffffffffffffffffffffffffffffffffffffffff021916908373ffffffffffffffffffffffffffffffffffffffff160217905550606082015181600301556080820151816004019081610ea49190612dc5565b5060a08201518160050160006101000a81548160ff02191690831515021790555060c08201518160050160016101000a81548160ff02191690831515021790555050507f1dc67b582e6a2da7ec55a2798f96baa860ea534fc380cccc3adb690f4177cfa988856006546000604051610f1f9493929190612ecb565b60405180910390a1600660008154610f3690612f17565b919050819055505050505050505050565b60026020528160005260406000208181548110610f6357600080fd5b906000526020600020906003020160009150915050806000018054610f8790612be8565b80601f0160208091040260200160405190810160405280929190818152602001828054610fb390612be8565b80156110005780601f10610fd557610100808354040283529160200191611000565b820191906000526020600020905b815481529060010190602001808311610fe357829003601f168201915b5050505050908060010160009054906101000a900460ff169080600201805461102890612be8565b80601f016020809104026020016040519081016040528092919081815260200182805461105490612be8565b80156110a15780601f10611076576101008083540402835291602001916110a1565b820191906000526020600020905b81548152906001019060200180831161108457829003601f168201915b5050505050905083565b6000600460003373ffffffffffffffffffffffffffffffffffffffff1673ffffffffffffffffffffffffffffffffffffffff16815260200190815260200160002083815481106110fe576110fd612a23565b5b90600052602060002090600502016040518060c00160405290816000820160009054906101000a900473ffffffffffffffffffffffffffffffffffffffff1673ffffffffffffffffffffffffffffffffffffffff1673ffffffffffffffffffffffffffffffffffffffff1681526020016001820160009054906101000a900473ffffffffffffffffffffffffffffffffffffffff1673ffffffffffffffffffffffffffffffffffffffff1673ffffffffffffffffffffffffffffffffffffffff168152602001600282015481526020016003820180546111dd90612be8565b80601f016020809104026020016040519081016040528092919081815260200182805461120990612be8565b80156112565780601f1061122b57610100808354040283529160200191611256565b820191906000526020600020905b81548152906001019060200180831161123957829003601f168201915b505050505081526020016004820160009054906101000a900460ff161515151581526020016004820160019054906101000a900460ff161515151581525050905081816080019015159081151581525050811561133157600060036000836020015173ffffffffffffffffffffffffffffffffffffffff1673ffffffffffffffffffffffffffffffffffffffff16815260200190815260200160002082604001518154811061130857611307612a23565b5b906000526020600020906005020160020160006101000a81548160ff0219169083151502179055505b6001600460003373ffffffffffffffffffffffffffffffffffffffff1673ffffffffffffffffffffffffffffffffffffffff168152602001908152602001600020848154811061138457611383612a23565b5b906000526020600020906005020160040160016101000a81548160ff0219169083151502179055507f83165fbcb53550458ffabd006f18aa35bfa1266b304b8d123e1706c6df71d058338460016040516113e093929190612b82565b60405180910390a1505050565b60008054906101000a900473ffffffffffffffffffffffffffffffffffffffff1673ffffffffffffffffffffffffffffffffffffffff163373ffffffffffffffffffffffffffffffffffffffff161461147b576040517f08c379a000000000000000000000000000000000000000000000000000000000815260040161147290612fab565b60405180910390fd5b60006005838154811061149157611490612a23565b5b90600052602060002090600602016040518060e00160405290816000820160009054906101000a900473ffffffffffffffffffffffffffffffffffffffff1673ffffffffffffffffffffffffffffffffffffffff1673ffffffffffffffffffffffffffffffffffffffff1681526020016001820160009054906101000a900473ffffffffffffffffffffffffffffffffffffffff1673ffffffffffffffffffffffffffffffffffffffff1673ffffffffffffffffffffffffffffffffffffffff1681526020016002820160009054906101000a900473ffffffffffffffffffffffffffffffffffffffff1673ffffffffffffffffffffffffffffffffffffffff1673ffffffffffffffffffffffffffffffffffffffff168152602001600382015481526020016004820180546115c690612be8565b80601f01602080910402602001604051908101604052809291908181526020018280546115f290612be8565b801561163f5780601f106116145761010080835404028352916020019161163f565b820191906000526020600020905b81548152906001019060200180831161162257829003601f168201915b505050505081526020016005820160009054906101000a900460ff161515151581526020016005820160019054906101000a900460ff1615151515815250509050818160a001901515908115158152505081156117f0576001806000836000015173ffffffffffffffffffffffffffffffffffffffff1673ffffffffffffffffffffffffffffffffffffffff16815260200190815260200160002060006101000a81548160ff021916908315150217905550806040015173ffffffffffffffffffffffffffffffffffffffff16816000015173ffffffffffffffffffffffffffffffffffffffff1614806117665750806020015173ffffffffffffffffffffffffffffffffffffffff16816000015173ffffffffffffffffffffffffffffffffffffffff16145b156117ef57600060036000836040015173ffffffffffffffffffffffffffffffffffffffff1673ffffffffffffffffffffffffffffffffffffffff1681526020019081526020016000208260600151815481106117c6576117c5612a23565b5b906000526020600020906005020160020160006101000a81548160ff0219169083151502179055505b5b60018160c0019015159081151581525050806005848154811061181657611815612a23565b5b906000526020600020906006020160008201518160000160006101000a81548173ffffffffffffffffffffffffffffffffffffffff021916908373ffffffffffffffffffffffffffffffffffffffff16021790555060208201518160010160006101000a81548173ffffffffffffffffffffffffffffffffffffffff021916908373ffffffffffffffffffffffffffffffffffffffff16021790555060408201518160020160006101000a81548173ffffffffffffffffffffffffffffffffffffffff021916908373ffffffffffffffffffffffffffffffffffffffff1602179055506060820151816003015560808201518160040190816119189190612dc5565b5060a08201518160050160006101000a81548160ff02191690831515021790555060c08201518160050160016101000a81548160ff0219169083151502179055509050507f1dc67b582e6a2da7ec55a2798f96baa860ea534fc380cccc3adb690f4177cfa98160000151826080015185600160405161199a9493929190612ecb565b60405180910390a1505050565b60003360001515600160008373ffffffffffffffffffffffffffffffffffffffff1673ffffffffffffffffffffffffffffffffffffffff16815260200190815260200160002060009054906101000a900460ff16151514611a3d576040517f08c379a0000000000000000000000000000000000000000000000000000000008152600401611a3490613017565b60405180910390fd5b8560001515600160008373ffffffffffffffffffffffffffffffffffffffff1673ffffffffffffffffffffffffffffffffffffffff16815260200190815260200160002060009054906101000a900460ff16151514611ad1576040517f08c379a0000000000000000000000000000000000000000000000000000000008152600401611ac890613017565b60405180910390fd5b33878073ffffffffffffffffffffffffffffffffffffffff168273ffffffffffffffffffffffffffffffffffffffff1603611b41576040517f08c379a0000000000000000000000000000000000000000000000000000000008152600401611b38906130a9565b60405180910390fd5b86868082108015611b5157504282115b8015611b5c57504281115b611b9b576040517f08c379a0000000000000000000000000000000000000000000000000000000008152600401611b9290613115565b60405180910390fd5b611ba36122a1565b8b816000019073ffffffffffffffffffffffffffffffffffffffff16908173ffffffffffffffffffffffffffffffffffffffff16815250508a81602001818152505060018160400190151590811515815250508981606001818152505088816080018181525050600360003373ffffffffffffffffffffffffffffffffffffffff1673ffffffffffffffffffffffffffffffffffffffff16815260200190815260200160002081908060018154018082558091505060019003906000526020600020906005020160009091909190915060008201518160000160006101000a81548173ffffffffffffffffffffffffffffffffffffffff021916908373ffffffffffffffffffffffffffffffffffffffff1602179055506020820151816001015560408201518160020160006101000a81548160ff021916908315150217905550606082015181600301556080820151816004015550507f9bc59027e24883ccdc5ec91d3872a67c6fb97b27795fe543a1d537f87d2ee935336001600360003373ffffffffffffffffffffffffffffffffffffffff1673ffffffffffffffffffffffffffffffffffffffff16815260200190815260200160002080549050611d6b9190612e97565b604051611d79929190613135565b60405180910390a16001600360003373ffffffffffffffffffffffffffffffffffffffff1673ffffffffffffffffffffffffffffffffffffffff16815260200190815260200160002080549050611dd09190612e97565b975050505050505050949350505050565b60008054906101000a900473ffffffffffffffffffffffffffffffffffffffff1681565b60003360001515600160008373ffffffffffffffffffffffffffffffffffffffff1673ffffffffffffffffffffffffffffffffffffffff16815260200190815260200160002060009054906101000a900460ff16151514611e9b576040517f08c379a0000000000000000000000000000000000000000000000000000000008152600401611e9290613017565b60405180910390fd5b611ea36122e8565b85816000018190525084816020019015159081151581525050838160400181905250600260003373ffffffffffffffffffffffffffffffffffffffff1673ffffffffffffffffffffffffffffffffffffffff1681526020019081526020016000208190806001815401808255809150506001900390600052602060002090600302016000909190919091506000820151816000019081611f439190612dc5565b5060208201518160010160006101000a81548160ff0219169083151502179055506040820151816002019081611f799190612dc5565b5050507fa5c370f890403040c286922a7a04d6236ab30a4621f49abd5ce5e9be58ffa6c2336001600260003373ffffffffffffffffffffffffffffffffffffffff1673ffffffffffffffffffffffffffffffffffffffff16815260200190815260200160002080549050611fed9190612e97565b604051611ffb929190613135565b60405180910390a16001600260003373ffffffffffffffffffffffffffffffffffffffff1673ffffffffffffffffffffffffffffffffffffffff168152602001908152602001600020805490506120529190612e97565b925050509392505050565b60016020528060005260406000206000915054906101000a900460ff1681565b6004602052816000526040600020818154811061209957600080fd5b9060005260206000209060050201600091509150508060000160009054906101000a900473ffffffffffffffffffffffffffffffffffffffff16908060010160009054906101000a900473ffffffffffffffffffffffffffffffffffffffff169080600201549080600301805461210f90612be8565b80601f016020809104026020016040519081016040528092919081815260200182805461213b90612be8565b80156121885780601f1061215d57610100808354040283529160200191612188565b820191906000526020600020905b81548152906001019060200180831161216b57829003601f168201915b5050505050908060040160009054906101000a900460ff16908060040160019054906101000a900460ff16905086565b6040518060c00160405280600073ffffffffffffffffffffffffffffffffffffffff168152602001600073ffffffffffffffffffffffffffffffffffffffff16815260200160008152602001606081526020016000151581526020016000151581525090565b6040518060e00160405280600073ffffffffffffffffffffffffffffffffffffffff168152602001600073ffffffffffffffffffffffffffffffffffffffff168152602001600073ffffffffffffffffffffffffffffffffffffffff16815260200160008152602001606081526020016000151581526020016000151581525090565b6040518060a00160405280600073ffffffffffffffffffffffffffffffffffffffff1681526020016000815260200160001515815260200160008152602001600081525090565b604051806060016040528060608152602001600015158152602001606081525090565b6000604051905090565b600080fd5b600080fd5b600073ffffffffffffffffffffffffffffffffffffffff82169050919050565b600061234a8261231f565b9050919050565b61235a8161233f565b811461236557600080fd5b50565b60008135905061237781612351565b92915050565b6000819050919050565b6123908161237d565b811461239b57600080fd5b50565b6000813590506123ad81612387565b92915050565b6000806000606084860312156123cc576123cb612315565b5b60006123da86828701612368565b93505060206123eb86828701612368565b92505060406123fc8682870161239e565b9150509250925092565b60008115159050919050565b61241b81612406565b82525050565b60006020820190506124366000830184612412565b92915050565b6000806040838503121561245357612452612315565b5b600061246185828601612368565b92505060206124728582860161239e565b9150509250929050565b6124858161233f565b82525050565b6124948161237d565b82525050565b600060a0820190506124af600083018861247c565b6124bc602083018761248b565b6124c96040830186612412565b6124d6606083018561248b565b6124e3608083018461248b565b9695505050505050565b600080fd5b600080fd5b6000601f19601f8301169050919050565b7f4e487b7100000000000000000000000000000000000000000000000000000000600052604160045260246000fd5b612540826124f7565b810181811067ffffffffffffffff8211171561255f5761255e612508565b5b80604052505050565b600061257261230b565b905061257e8282612537565b919050565b600067ffffffffffffffff82111561259e5761259d612508565b5b6125a7826124f7565b9050602081019050919050565b82818337600083830152505050565b60006125d66125d184612583565b612568565b9050828152602081018484840111156125f2576125f16124f2565b5b6125fd8482856125b4565b509392505050565b600082601f83011261261a576126196124ed565b5b813561262a8482602086016125c3565b91505092915050565b600080600080600060a0868803121561264f5761264e612315565b5b600061265d88828901612368565b955050602061266e88828901612368565b945050604061267f88828901612368565b93505060606126908882890161239e565b925050608086013567ffffffffffffffff8111156126b1576126b061231a565b5b6126bd88828901612605565b9150509295509295909350565b600081519050919050565b600082825260208201905092915050565b60005b838110156127045780820151818401526020810190506126e9565b60008484015250505050565b600061271b826126ca565b61272581856126d5565b93506127358185602086016126e6565b61273e816124f7565b840191505092915050565b600060608201905081810360008301526127638186612710565b90506127726020830185612412565b81810360408301526127848184612710565b9050949350505050565b61279781612406565b81146127a257600080fd5b50565b6000813590506127b48161278e565b92915050565b600080604083850312156127d1576127d0612315565b5b60006127df8582860161239e565b92505060206127f0858286016127a5565b9150509250929050565b6000806000806080858703121561281457612813612315565b5b600061282287828801612368565b94505060206128338782880161239e565b93505060406128448782880161239e565b92505060606128558782880161239e565b91505092959194509250565b6000602082019050612876600083018461248b565b92915050565b6000602082019050612891600083018461247c565b92915050565b6000806000606084860312156128b0576128af612315565b5b600084013567ffffffffffffffff8111156128ce576128cd61231a565b5b6128da86828701612605565b93505060206128eb868287016127a5565b925050604084013567ffffffffffffffff81111561290c5761290b61231a565b5b61291886828701612605565b9150509250925092565b60006020828403121561293857612937612315565b5b600061294684828501612368565b91505092915050565b600060c082019050612964600083018961247c565b612971602083018861247c565b61297e604083018761248b565b81810360608301526129908186612710565b905061299f6080830185612412565b6129ac60a0830184612412565b979650505050505050565b7f41757468204572726f7221000000000000000000000000000000000000000000600082015250565b60006129ed600b836126d5565b91506129f8826129b7565b602082019050919050565b60006020820190508181036000830152612a1c816129e0565b9050919050565b7f4e487b7100000000000000000000000000000000000000000000000000000000600052603260045260246000fd5b7f4c65617365207061737369766521000000000000000000000000000000000000600082015250565b6000612a88600e836126d5565b9150612a9382612a52565b602082019050919050565b60006020820190508181036000830152612ab781612a7b565b9050919050565b6000819050919050565b7f4e487b7100000000000000000000000000000000000000000000000000000000600052601160045260246000fd5b6000612b0282612abe565b9150612b0d83612abe565b9250828203905081811260008412168282136000851215161715612b3457612b33612ac8565b5b92915050565b6000612b4582612abe565b91507f80000000000000000000000000000000000000000000000000000000000000008203612b7757612b76612ac8565b5b816000039050919050565b6000606082019050612b97600083018661247c565b612ba4602083018561248b565b612bb16040830184612412565b949350505050565b7f4e487b7100000000000000000000000000000000000000000000000000000000600052602260045260246000fd5b60006002820490506001821680612c0057607f821691505b602082108103612c1357612c12612bb9565b5b50919050565b60008190508160005260206000209050919050565b60006020601f8301049050919050565b600082821b905092915050565b600060088302612c7b7fffffffffffffffffffffffffffffffffffffffffffffffffffffffffffffffff82612c3e565b612c858683612c3e565b95508019841693508086168417925050509392505050565b6000819050919050565b6000612cc2612cbd612cb88461237d565b612c9d565b61237d565b9050919050565b6000819050919050565b612cdc83612ca7565b612cf0612ce882612cc9565b848454612c4b565b825550505050565b600090565b612d05612cf8565b612d10818484612cd3565b505050565b5b81811015612d3457612d29600082612cfd565b600181019050612d16565b5050565b601f821115612d7957612d4a81612c19565b612d5384612c2e565b81016020851015612d62578190505b612d76612d6e85612c2e565b830182612d15565b50505b505050565b600082821c905092915050565b6000612d9c60001984600802612d7e565b1980831691505092915050565b6000612db58383612d8b565b9150826002028217905092915050565b612dce826126ca565b67ffffffffffffffff811115612de757612de6612508565b5b612df18254612be8565b612dfc828285612d38565b600060209050601f831160018114612e2f5760008415612e1d578287015190505b612e278582612da9565b865550612e8f565b601f198416612e3d86612c19565b60005b82811015612e6557848901518255600182019150602085019450602081019050612e40565b86831015612e825784890151612e7e601f891682612d8b565b8355505b6001600288020188555050505b505050505050565b6000612ea28261237d565b9150612ead8361237d565b9250828203905081811115612ec557612ec4612ac8565b5b92915050565b6000608082019050612ee0600083018761247c565b8181036020830152612ef28186612710565b9050612f01604083018561248b565b612f0e6060830184612412565b95945050505050565b6000612f228261237d565b91507fffffffffffffffffffffffffffffffffffffffffffffffffffffffffffffffff8203612f5457612f53612ac8565b5b600182019050919050565b7f4f6e6c79204f776e65722063616e20646f210000000000000000000000000000600082015250565b6000612f956012836126d5565b9150612fa082612f5f565b602082019050919050565b60006020820190508181036000830152612fc481612f88565b9050919050565b7f7573657220697320696e20626c61636b6c697374000000000000000000000000600082015250565b60006130016014836126d5565b915061300c82612fcb565b602082019050919050565b6000602082019050818103600083015261303081612ff4565b9050919050565b7f72656e74657220616e64206c6573736f722063616e206e6f742062652073616d60008201527f6521000000000000000000000000000000000000000000000000000000000000602082015250565b60006130936022836126d5565b915061309e82613037565b604082019050919050565b600060208201905081810360008301526130c281613086565b9050919050565b7f54696d657374616d70204572726f720000000000000000000000000000000000600082015250565b60006130ff600f836126d5565b915061310a826130c9565b602082019050919050565b6000602082019050818103600083015261312e816130f2565b9050919050565b600060408201905061314a600083018561247c565b613157602083018461248b565b939250505056fea2646970667358221220b2c00a3e3be954cca2104d49bcdefeba7627df2c9cea0de10b02e53369b70d0c64736f6c63430008130033",
  "linkReferences": {},
  "deployedLinkReferences": {}
}