{
  "_format": "hh-sol-artifact-1",
  "contractName": "AdvanceRental",
  "sourceName": "contracts/AdvanceRental.sol",
  "abi": [
    {
      "inputs": [],
      "stateMutability": "nonpayable",
      "type": "constructor"
    },
    {
      "anonymous": false,
      "inputs": [
        {
          "indexed": false,
          "internalType": "address",
          "name": "lessor",
          "type": "address"
        },
        {
          "indexed": false,
          "internalType": "uint256",
          "name": "assetID",
          "type": "uint256"
        }
      ],
      "name": "addedAsset",
      "type": "event"
    },
    {
      "anonymous": false,
      "inputs": [
        {
          "indexed": false,
          "internalType": "address",
          "name": "complainedAbout",
          "type": "address"
        },
        {
          "indexed": false,
          "internalType": "string",
          "name": "description",
          "type": "string"
        },
        {
          "indexed": false,
          "internalType": "uint256",
          "name": "complaintIndex",
          "type": "uint256"
        },
        {
          "indexed": false,
          "internalType": "bool",
          "name": "ended",
          "type": "bool"
        }
      ],
      "name": "addedComplaint",
      "type": "event"
    },
    {
      "anonymous": false,
      "inputs": [
        {
          "indexed": false,
          "internalType": "address",
          "name": "renter",
          "type": "address"
        },
        {
          "indexed": false,
          "internalType": "uint256",
          "name": "leaseID",
          "type": "uint256"
        }
      ],
      "name": "addedRent",
      "type": "event"
    },
    {
      "anonymous": false,
      "inputs": [
        {
          "indexed": false,
          "internalType": "address",
          "name": "whom",
          "type": "address"
        },
        {
          "indexed": false,
          "internalType": "uint256",
          "name": "approvementID",
          "type": "uint256"
        },
        {
          "indexed": false,
          "internalType": "bool",
          "name": "ended",
          "type": "bool"
        }
      ],
      "name": "approvement",
      "type": "event"
    },
    {
      "anonymous": false,
      "inputs": [
        {
          "indexed": false,
          "internalType": "address",
          "name": "renter",
          "type": "address"
        },
        {
          "indexed": false,
          "internalType": "uint256",
          "name": "leaseID",
          "type": "uint256"
        },
        {
          "indexed": false,
          "internalType": "bool",
          "name": "status",
          "type": "bool"
        }
      ],
      "name": "breakedLease",
      "type": "event"
    },
    {
      "inputs": [
        {
          "internalType": "string",
          "name": "_kind",
          "type": "string"
        },
        {
          "internalType": "bool",
          "name": "_status",
          "type": "bool"
        },
        {
          "internalType": "string",
          "name": "_assetAddress",
          "type": "string"
        }
      ],
      "name": "addAsset",
      "outputs": [
        {
          "internalType": "uint256",
          "name": "",
          "type": "uint256"
        }
      ],
      "stateMutability": "nonpayable",
      "type": "function"
    },
    {
      "inputs": [
        {
          "internalType": "uint256",
          "name": "approvementID",
          "type": "uint256"
        },
        {
          "internalType": "bool",
          "name": "result",
          "type": "bool"
        }
      ],
      "name": "approve",
      "outputs": [],
      "stateMutability": "nonpayable",
      "type": "function"
    },
    {
      "inputs": [
        {
          "internalType": "address",
          "name": "",
          "type": "address"
        },
        {
          "internalType": "uint256",
          "name": "",
          "type": "uint256"
        }
      ],
      "name": "approvements",
      "outputs": [
        {
          "internalType": "address",
          "name": "lessor",
          "type": "address"
        },
        {
          "internalType": "address",
          "name": "renter",
          "type": "address"
        },
        {
          "internalType": "uint256",
          "name": "leaseID",
          "type": "uint256"
        },
        {
          "internalType": "string",
          "name": "description",
          "type": "string"
        },
        {
          "internalType": "bool",
          "name": "approve",
          "type": "bool"
        },
        {
          "internalType": "bool",
          "name": "ended",
          "type": "bool"
        }
      ],
      "stateMutability": "view",
      "type": "function"
    },
    {
      "inputs": [
        {
          "internalType": "address",
          "name": "",
          "type": "address"
        },
        {
          "internalType": "uint256",
          "name": "",
          "type": "uint256"
        }
      ],
      "name": "assets",
      "outputs": [
        {
          "internalType": "string",
          "name": "kind",
          "type": "string"
        },
        {
          "internalType": "bool",
          "name": "status",
          "type": "bool"
        },
        {
          "internalType": "string",
          "name": "assetAddress",
          "type": "string"
        }
      ],
      "stateMutability": "view",
      "type": "function"
    },
    {
      "inputs": [
        {
          "internalType": "address",
          "name": "_renter",
          "type": "address"
        },
        {
          "internalType": "address",
          "name": "_lessor",
          "type": "address"
        },
        {
          "internalType": "uint256",
          "name": "_leaseID",
          "type": "uint256"
        }
      ],
      "name": "breakLease",
      "outputs": [
        {
          "internalType": "bool",
          "name": "",
          "type": "bool"
        }
      ],
      "stateMutability": "nonpayable",
      "type": "function"
    },
    {
      "inputs": [
        {
          "internalType": "address",
          "name": "_complainAbout",
          "type": "address"
        },
        {
          "internalType": "address",
          "name": "_lessor",
          "type": "address"
        },
        {
          "internalType": "address",
          "name": "_renter",
          "type": "address"
        },
        {
          "internalType": "uint256",
          "name": "_leaseID",
          "type": "uint256"
        },
        {
          "internalType": "string",
          "name": "_description",
          "type": "string"
        }
      ],
      "name": "complain",
      "outputs": [],
      "stateMutability": "nonpayable",
      "type": "function"
    },
    {
      "inputs": [],
      "name": "complaintIndex",
      "outputs": [
        {
          "internalType": "uint256",
          "name": "",
          "type": "uint256"
        }
      ],
      "stateMutability": "view",
      "type": "function"
    },
    {
      "inputs": [
        {
          "internalType": "uint256",
          "name": "_complaintIndex",
          "type": "uint256"
        },
        {
          "internalType": "bool",
          "name": "result",
          "type": "bool"
        }
      ],
      "name": "complaintSolver",
      "outputs": [],
      "stateMutability": "nonpayable",
      "type": "function"
    },
    {
      "inputs": [
        {
          "internalType": "uint256",
          "name": "",
          "type": "uint256"
        }
      ],
      "name": "complaints",
      "outputs": [
        {
          "internalType": "address",
          "name": "complainedAbout",
          "type": "address"
        },
        {
          "internalType": "address",
          "name": "lessor",
          "type": "address"
        },
        {
          "internalType": "address",
          "name": "renter",
          "type": "address"
        },
        {
          "internalType": "uint256",
          "name": "leaseID",
          "type": "uint256"
        },
        {
          "internalType": "string",
          "name": "description",
          "type": "string"
        },
        {
          "internalType": "bool",
          "name": "result",
          "type": "bool"
        },
        {
          "internalType": "bool",
          "name": "ended",
          "type": "bool"
        }
      ],
      "stateMutability": "view",
      "type": "function"
    },
    {
      "inputs": [
        {
          "internalType": "address",
          "name": "",
          "type": "address"
        }
      ],
      "name": "isblacklisted",
      "outputs": [
        {
          "internalType": "bool",
          "name": "",
          "type": "bool"
        }
      ],
      "stateMutability": "view",
      "type": "function"
    },
    {
      "inputs": [
        {
          "internalType": "address",
          "name": "",
          "type": "address"
        },
        {
          "internalType": "uint256",
          "name": "",
          "type": "uint256"
        }
      ],
      "name": "leases",
      "outputs": [
        {
          "internalType": "address",
          "name": "lessor",
          "type": "address"
        },
        {
          "internalType": "uint256",
          "name": "assetID",
          "type": "uint256"
        },
        {
          "internalType": "bool",
          "name": "status",
          "type": "bool"
        },
        {
          "internalType": "uint256",
          "name": "startTime",
          "type": "uint256"
        },
        {
          "internalType": "uint256",
          "name": "endTime",
          "type": "uint256"
        }
      ],
      "stateMutability": "view",
      "type": "function"
    },
    {
      "inputs": [],
      "name": "owner",
      "outputs": [
        {
          "internalType": "address",
          "name": "",
          "type": "address"
        }
      ],
      "stateMutability": "view",
      "type": "function"
    },
    {
      "inputs": [
        {
          "internalType": "address",
          "name": "_lessor",
          "type": "address"
        },
        {
          "internalType": "uint256",
          "name": "_assetID",
          "type": "uint256"
        },
        {
          "internalType": "uint256",
          "name": "_startTime",
          "type": "uint256"
        },
        {
          "internalType": "uint256",
          "name": "_endTime",
          "type": "uint256"
        }
      ],
      "name": "rent",
      "outputs": [
        {
          "internalType": "uint256",
          "name": "",
          "type": "uint256"
        }
      ],
      "stateMutability": "nonpayable",
      "type": "function"
    }
  ],
  "bytecode": "0x608060405234801561001057600080fd5b50336000806101000a81548173ffffffffffffffffffffffffffffffffffffffff021916908373ffffffffffffffffffffffffffffffffffffffff160217905550613692806100606000396000f3fe608060405234801561001057600080fd5b50600436106100cf5760003560e01c80638068e77d1161008c578063be6623f911610066578063be6623f914610242578063e6e1718f14610260578063ed6a596514610290578063f56e45ea146102c0576100cf565b80638068e77d146101d857806388369ad7146101f45780638da5cb5b14610224576100cf565b806328be48ac146100d4578063432fc7ea146101045780634a055ed91461013857806351eb27c014610154578063747442d3146101865780637e69e912146101a2575b600080fd5b6100ee60048036038101906100e9919061280e565b6102f5565b6040516100fb919061287c565b60405180910390f35b61011e60048036038101906101199190612897565b610c85565b60405161012f9594939291906128f5565b60405180910390f35b610152600480360381019061014d9190612a8e565b610d05565b005b61016e60048036038101906101699190612897565b611044565b60405161017d93929190612ba4565b60405180910390f35b6101a0600480360381019061019b9190612c15565b6111a8565b005b6101bc60048036038101906101b79190612c55565b611673565b6040516101cf9796959493929190612c82565b60405180910390f35b6101f260048036038101906101ed9190612c15565b6117c7565b005b61020e60048036038101906102099190612cf8565b611d81565b60405161021b9190612d5f565b60405180910390f35b61022c612236565b6040516102399190612d7a565b60405180910390f35b61024a61225a565b6040516102579190612d5f565b60405180910390f35b61027a60048036038101906102759190612d95565b612260565b6040516102879190612d5f565b60405180910390f35b6102aa60048036038101906102a59190612e20565b6124b8565b6040516102b7919061287c565b60405180910390f35b6102da60048036038101906102d59190612897565b6124d8565b6040516102ec96959493929190612e4d565b60405180910390f35b600083838173ffffffffffffffffffffffffffffffffffffffff163373ffffffffffffffffffffffffffffffffffffffff1614158061036057508073ffffffffffffffffffffffffffffffffffffffff163373ffffffffffffffffffffffffffffffffffffffff1614155b61039f576040517f08c379a000000000000000000000000000000000000000000000000000000000815260040161039690612f01565b60405180910390fd5b6000600360008873ffffffffffffffffffffffffffffffffffffffff1673ffffffffffffffffffffffffffffffffffffffff16815260200190815260200160002085815481106103f2576103f1612f21565b5b90600052602060002090600502016040518060a00160405290816000820160009054906101000a900473ffffffffffffffffffffffffffffffffffffffff1673ffffffffffffffffffffffffffffffffffffffff1673ffffffffffffffffffffffffffffffffffffffff168152602001600182015481526020016002820160009054906101000a900460ff161515151581526020016003820154815260200160048201548152505090506001151581604001511515146104e7576040517f08c379a00000000000000000000000000000000000000000000000000000000081526004016104de90612f9c565b60405180910390fd5b60008160800151426104f99190612ff5565b90506000811215610513578061050e90613038565b610515565b805b90506213c6808112156106e557600082604001901515908115158152505081600360008a73ffffffffffffffffffffffffffffffffffffffff1673ffffffffffffffffffffffffffffffffffffffff168152602001908152602001600020878154811061058557610584612f21565b5b906000526020600020906005020160008201518160000160006101000a81548173ffffffffffffffffffffffffffffffffffffffff021916908373ffffffffffffffffffffffffffffffffffffffff1602179055506020820151816001015560408201518160020160006101000a81548160ff0219169083151502179055506060820151816003015560808201518160040155905050600160026000846000015173ffffffffffffffffffffffffffffffffffffffff1673ffffffffffffffffffffffffffffffffffffffff16815260200190815260200160002083602001518154811061067657610675612f21565b5b906000526020600020906003020160010160006101000a81548160ff0219169083151502179055507f04c8f243608e6383a128987e09669b73e6dc88a11b4fb00ad845f705efe40cbf888760016040516106d293929190613080565b60405180910390a1600194505050610c7c565b6106ed612613565b87816000019073ffffffffffffffffffffffffffffffffffffffff16908173ffffffffffffffffffffffffffffffffffffffff168152505088816020019073ffffffffffffffffffffffffffffffffffffffff16908173ffffffffffffffffffffffffffffffffffffffff168152505086816040018181525050600081608001901515908115158152505060008160a00190151590811515815250508873ffffffffffffffffffffffffffffffffffffffff163373ffffffffffffffffffffffffffffffffffffffff16036109e2576040518060400160405280601a81526020017f52656e7465722077616e6e6120656e6420746865206c656173650000000000008152508160600181905250600460008973ffffffffffffffffffffffffffffffffffffffff1673ffffffffffffffffffffffffffffffffffffffff16815260200190815260200160002081908060018154018082558091505060019003906000526020600020906005020160009091909190915060008201518160000160006101000a81548173ffffffffffffffffffffffffffffffffffffffff021916908373ffffffffffffffffffffffffffffffffffffffff16021790555060208201518160010160006101000a81548173ffffffffffffffffffffffffffffffffffffffff021916908373ffffffffffffffffffffffffffffffffffffffff16021790555060408201518160020155606082015181600301908161091091906132c3565b5060808201518160040160006101000a81548160ff02191690831515021790555060a08201518160040160016101000a81548160ff02191690831515021790555050507f83165fbcb53550458ffabd006f18aa35bfa1266b304b8d123e1706c6df71d058886001600460008c73ffffffffffffffffffffffffffffffffffffffff1673ffffffffffffffffffffffffffffffffffffffff168152602001908152602001600020805490506109c49190613395565b60006040516109d593929190613080565b60405180910390a1610c38565b8773ffffffffffffffffffffffffffffffffffffffff163373ffffffffffffffffffffffffffffffffffffffff1603610c37576040518060400160405280601a81526020017f4c6573736f722077616e6e6120656e6420746865206c656173650000000000008152508160600181905250600460008a73ffffffffffffffffffffffffffffffffffffffff1673ffffffffffffffffffffffffffffffffffffffff16815260200190815260200160002081908060018154018082558091505060019003906000526020600020906005020160009091909190915060008201518160000160006101000a81548173ffffffffffffffffffffffffffffffffffffffff021916908373ffffffffffffffffffffffffffffffffffffffff16021790555060208201518160010160006101000a81548173ffffffffffffffffffffffffffffffffffffffff021916908373ffffffffffffffffffffffffffffffffffffffff160217905550604082015181600201556060820151816003019081610b6991906132c3565b5060808201518160040160006101000a81548160ff02191690831515021790555060a08201518160040160016101000a81548160ff02191690831515021790555050507f83165fbcb53550458ffabd006f18aa35bfa1266b304b8d123e1706c6df71d058896001600460008d73ffffffffffffffffffffffffffffffffffffffff1673ffffffffffffffffffffffffffffffffffffffff16815260200190815260200160002080549050610c1d9190613395565b6000604051610c2e93929190613080565b60405180910390a15b5b7f04c8f243608e6383a128987e09669b73e6dc88a11b4fb00ad845f705efe40cbf89886000604051610c6c93929190613080565b60405180910390a1600095505050505b50509392505050565b60036020528160005260406000208181548110610ca157600080fd5b9060005260206000209060050201600091509150508060000160009054906101000a900473ffffffffffffffffffffffffffffffffffffffff16908060010154908060020160009054906101000a900460ff16908060030154908060040154905085565b82848173ffffffffffffffffffffffffffffffffffffffff163373ffffffffffffffffffffffffffffffffffffffff16141580610d6e57508073ffffffffffffffffffffffffffffffffffffffff163373ffffffffffffffffffffffffffffffffffffffff1614155b610dad576040517f08c379a0000000000000000000000000000000000000000000000000000000008152600401610da490612f01565b60405180910390fd5b610db5612679565b87816000019073ffffffffffffffffffffffffffffffffffffffff16908173ffffffffffffffffffffffffffffffffffffffff168152505086816020019073ffffffffffffffffffffffffffffffffffffffff16908173ffffffffffffffffffffffffffffffffffffffff168152505085816040019073ffffffffffffffffffffffffffffffffffffffff16908173ffffffffffffffffffffffffffffffffffffffff16815250508481606001818152505083816080018190525060008160c0019015159081151581525050600581908060018154018082558091505060019003906000526020600020906006020160009091909190915060008201518160000160006101000a81548173ffffffffffffffffffffffffffffffffffffffff021916908373ffffffffffffffffffffffffffffffffffffffff16021790555060208201518160010160006101000a81548173ffffffffffffffffffffffffffffffffffffffff021916908373ffffffffffffffffffffffffffffffffffffffff16021790555060408201518160020160006101000a81548173ffffffffffffffffffffffffffffffffffffffff021916908373ffffffffffffffffffffffffffffffffffffffff160217905550606082015181600301556080820151816004019081610fa191906132c3565b5060a08201518160050160006101000a81548160ff02191690831515021790555060c08201518160050160016101000a81548160ff02191690831515021790555050507f1dc67b582e6a2da7ec55a2798f96baa860ea534fc380cccc3adb690f4177cfa98885600654600060405161101c94939291906133c9565b60405180910390a160066000815461103390613415565b919050819055505050505050505050565b6002602052816000526040600020818154811061106057600080fd5b906000526020600020906003020160009150915050806000018054611084906130e6565b80601f01602080910402602001604051908101604052809291908181526020018280546110b0906130e6565b80156110fd5780601f106110d2576101008083540402835291602001916110fd565b820191906000526020600020905b8154815290600101906020018083116110e057829003601f168201915b5050505050908060010160009054906101000a900460ff1690806002018054611125906130e6565b80601f0160208091040260200160405190810160405280929190818152602001828054611151906130e6565b801561119e5780601f106111735761010080835404028352916020019161119e565b820191906000526020600020905b81548152906001019060200180831161118157829003601f168201915b5050505050905083565b6000600460003373ffffffffffffffffffffffffffffffffffffffff1673ffffffffffffffffffffffffffffffffffffffff16815260200190815260200160002083815481106111fb576111fa612f21565b5b90600052602060002090600502016040518060c00160405290816000820160009054906101000a900473ffffffffffffffffffffffffffffffffffffffff1673ffffffffffffffffffffffffffffffffffffffff1673ffffffffffffffffffffffffffffffffffffffff1681526020016001820160009054906101000a900473ffffffffffffffffffffffffffffffffffffffff1673ffffffffffffffffffffffffffffffffffffffff1673ffffffffffffffffffffffffffffffffffffffff168152602001600282015481526020016003820180546112da906130e6565b80601f0160208091040260200160405190810160405280929190818152602001828054611306906130e6565b80156113535780601f1061132857610100808354040283529160200191611353565b820191906000526020600020905b81548152906001019060200180831161133657829003601f168201915b505050505081526020016004820160009054906101000a900460ff161515151581526020016004820160019054906101000a900460ff16151515158152505090508181608001901515908115158152505081156115b757600060036000836020015173ffffffffffffffffffffffffffffffffffffffff1673ffffffffffffffffffffffffffffffffffffffff16815260200190815260200160002082604001518154811061140557611404612f21565b5b906000526020600020906005020160020160006101000a81548160ff021916908315150217905550600060036000836020015173ffffffffffffffffffffffffffffffffffffffff1673ffffffffffffffffffffffffffffffffffffffff16815260200190815260200160002082604001518154811061148857611487612f21565b5b90600052602060002090600502016040518060a00160405290816000820160009054906101000a900473ffffffffffffffffffffffffffffffffffffffff1673ffffffffffffffffffffffffffffffffffffffff1673ffffffffffffffffffffffffffffffffffffffff168152602001600182015481526020016002820160009054906101000a900460ff16151515158152602001600382015481526020016004820154815250509050600160026000836000015173ffffffffffffffffffffffffffffffffffffffff1673ffffffffffffffffffffffffffffffffffffffff16815260200190815260200160002082602001518154811061158d5761158c612f21565b5b906000526020600020906003020160010160006101000a81548160ff021916908315150217905550505b6001600460003373ffffffffffffffffffffffffffffffffffffffff1673ffffffffffffffffffffffffffffffffffffffff168152602001908152602001600020848154811061160a57611609612f21565b5b906000526020600020906005020160040160016101000a81548160ff0219169083151502179055507f83165fbcb53550458ffabd006f18aa35bfa1266b304b8d123e1706c6df71d0583384600160405161166693929190613080565b60405180910390a1505050565b6005818154811061168357600080fd5b90600052602060002090600602016000915090508060000160009054906101000a900473ffffffffffffffffffffffffffffffffffffffff16908060010160009054906101000a900473ffffffffffffffffffffffffffffffffffffffff16908060020160009054906101000a900473ffffffffffffffffffffffffffffffffffffffff169080600301549080600401805461171e906130e6565b80601f016020809104026020016040519081016040528092919081815260200182805461174a906130e6565b80156117975780601f1061176c57610100808354040283529160200191611797565b820191906000526020600020905b81548152906001019060200180831161177a57829003601f168201915b5050505050908060050160009054906101000a900460ff16908060050160019054906101000a900460ff16905087565b60008054906101000a900473ffffffffffffffffffffffffffffffffffffffff1673ffffffffffffffffffffffffffffffffffffffff163373ffffffffffffffffffffffffffffffffffffffff1614611855576040517f08c379a000000000000000000000000000000000000000000000000000000000815260040161184c906134a9565b60405180910390fd5b60006005838154811061186b5761186a612f21565b5b90600052602060002090600602016040518060e00160405290816000820160009054906101000a900473ffffffffffffffffffffffffffffffffffffffff1673ffffffffffffffffffffffffffffffffffffffff1673ffffffffffffffffffffffffffffffffffffffff1681526020016001820160009054906101000a900473ffffffffffffffffffffffffffffffffffffffff1673ffffffffffffffffffffffffffffffffffffffff1673ffffffffffffffffffffffffffffffffffffffff1681526020016002820160009054906101000a900473ffffffffffffffffffffffffffffffffffffffff1673ffffffffffffffffffffffffffffffffffffffff1673ffffffffffffffffffffffffffffffffffffffff168152602001600382015481526020016004820180546119a0906130e6565b80601f01602080910402602001604051908101604052809291908181526020018280546119cc906130e6565b8015611a195780601f106119ee57610100808354040283529160200191611a19565b820191906000526020600020905b8154815290600101906020018083116119fc57829003601f168201915b505050505081526020016005820160009054906101000a900460ff161515151581526020016005820160019054906101000a900460ff1615151515815250509050818160a00190151590811515815250508115611bca576001806000836000015173ffffffffffffffffffffffffffffffffffffffff1673ffffffffffffffffffffffffffffffffffffffff16815260200190815260200160002060006101000a81548160ff021916908315150217905550806040015173ffffffffffffffffffffffffffffffffffffffff16816000015173ffffffffffffffffffffffffffffffffffffffff161480611b405750806020015173ffffffffffffffffffffffffffffffffffffffff16816000015173ffffffffffffffffffffffffffffffffffffffff16145b15611bc957600060036000836040015173ffffffffffffffffffffffffffffffffffffffff1673ffffffffffffffffffffffffffffffffffffffff168152602001908152602001600020826060015181548110611ba057611b9f612f21565b5b906000526020600020906005020160020160006101000a81548160ff0219169083151502179055505b5b60018160c00190151590811515815250508060058481548110611bf057611bef612f21565b5b906000526020600020906006020160008201518160000160006101000a81548173ffffffffffffffffffffffffffffffffffffffff021916908373ffffffffffffffffffffffffffffffffffffffff16021790555060208201518160010160006101000a81548173ffffffffffffffffffffffffffffffffffffffff021916908373ffffffffffffffffffffffffffffffffffffffff16021790555060408201518160020160006101000a81548173ffffffffffffffffffffffffffffffffffffffff021916908373ffffffffffffffffffffffffffffffffffffffff160217905550606082015181600301556080820151816004019081611cf291906132c3565b5060a08201518160050160006101000a81548160ff02191690831515021790555060c08201518160050160016101000a81548160ff0219169083151502179055509050507f1dc67b582e6a2da7ec55a2798f96baa860ea534fc380cccc3adb690f4177cfa981600001518260800151856001604051611d7494939291906133c9565b60405180910390a1505050565b60003360001515600160008373ffffffffffffffffffffffffffffffffffffffff1673ffffffffffffffffffffffffffffffffffffffff16815260200190815260200160002060009054906101000a900460ff16151514611e17576040517f08c379a0000000000000000000000000000000000000000000000000000000008152600401611e0e90613515565b60405180910390fd5b8560001515600160008373ffffffffffffffffffffffffffffffffffffffff1673ffffffffffffffffffffffffffffffffffffffff16815260200190815260200160002060009054906101000a900460ff16151514611eab576040517f08c379a0000000000000000000000000000000000000000000000000000000008152600401611ea290613515565b60405180910390fd5b33878073ffffffffffffffffffffffffffffffffffffffff168273ffffffffffffffffffffffffffffffffffffffff1603611f1b576040517f08c379a0000000000000000000000000000000000000000000000000000000008152600401611f12906135a7565b60405180910390fd5b86868082108015611f2b57504282115b8015611f3657504281115b611f75576040517f08c379a0000000000000000000000000000000000000000000000000000000008152600401611f6c90613613565b60405180910390fd5b611f7d6126fc565b8b816000019073ffffffffffffffffffffffffffffffffffffffff16908173ffffffffffffffffffffffffffffffffffffffff16815250508a81602001818152505060018160400190151590811515815250508981606001818152505088816080018181525050600360003373ffffffffffffffffffffffffffffffffffffffff1673ffffffffffffffffffffffffffffffffffffffff16815260200190815260200160002081908060018154018082558091505060019003906000526020600020906005020160009091909190915060008201518160000160006101000a81548173ffffffffffffffffffffffffffffffffffffffff021916908373ffffffffffffffffffffffffffffffffffffffff1602179055506020820151816001015560408201518160020160006101000a81548160ff021916908315150217905550606082015181600301556080820151816004015550506000600260008e73ffffffffffffffffffffffffffffffffffffffff1673ffffffffffffffffffffffffffffffffffffffff1681526020019081526020016000208c8154811061212757612126612f21565b5b906000526020600020906003020160010160006101000a81548160ff0219169083151502179055507f9bc59027e24883ccdc5ec91d3872a67c6fb97b27795fe543a1d537f87d2ee935336001600360003373ffffffffffffffffffffffffffffffffffffffff1673ffffffffffffffffffffffffffffffffffffffff168152602001908152602001600020805490506121c09190613395565b6040516121ce929190613633565b60405180910390a16001600360003373ffffffffffffffffffffffffffffffffffffffff1673ffffffffffffffffffffffffffffffffffffffff168152602001908152602001600020805490506122259190613395565b975050505050505050949350505050565b60008054906101000a900473ffffffffffffffffffffffffffffffffffffffff1681565b60065481565b60003360001515600160008373ffffffffffffffffffffffffffffffffffffffff1673ffffffffffffffffffffffffffffffffffffffff16815260200190815260200160002060009054906101000a900460ff161515146122f6576040517f08c379a00000000000000000000000000000000000000000000000000000000081526004016122ed90613515565b60405180910390fd5b6122fe612743565b85816000018190525084816020019015159081151581525050838160400181905250600260003373ffffffffffffffffffffffffffffffffffffffff1673ffffffffffffffffffffffffffffffffffffffff168152602001908152602001600020819080600181540180825580915050600190039060005260206000209060030201600090919091909150600082015181600001908161239e91906132c3565b5060208201518160010160006101000a81548160ff02191690831515021790555060408201518160020190816123d491906132c3565b5050507fa5c370f890403040c286922a7a04d6236ab30a4621f49abd5ce5e9be58ffa6c2336001600260003373ffffffffffffffffffffffffffffffffffffffff1673ffffffffffffffffffffffffffffffffffffffff168152602001908152602001600020805490506124489190613395565b604051612456929190613633565b60405180910390a16001600260003373ffffffffffffffffffffffffffffffffffffffff1673ffffffffffffffffffffffffffffffffffffffff168152602001908152602001600020805490506124ad9190613395565b925050509392505050565b60016020528060005260406000206000915054906101000a900460ff1681565b600460205281600052604060002081815481106124f457600080fd5b9060005260206000209060050201600091509150508060000160009054906101000a900473ffffffffffffffffffffffffffffffffffffffff16908060010160009054906101000a900473ffffffffffffffffffffffffffffffffffffffff169080600201549080600301805461256a906130e6565b80601f0160208091040260200160405190810160405280929190818152602001828054612596906130e6565b80156125e35780601f106125b8576101008083540402835291602001916125e3565b820191906000526020600020905b8154815290600101906020018083116125c657829003601f168201915b5050505050908060040160009054906101000a900460ff16908060040160019054906101000a900460ff16905086565b6040518060c00160405280600073ffffffffffffffffffffffffffffffffffffffff168152602001600073ffffffffffffffffffffffffffffffffffffffff16815260200160008152602001606081526020016000151581526020016000151581525090565b6040518060e00160405280600073ffffffffffffffffffffffffffffffffffffffff168152602001600073ffffffffffffffffffffffffffffffffffffffff168152602001600073ffffffffffffffffffffffffffffffffffffffff16815260200160008152602001606081526020016000151581526020016000151581525090565b6040518060a00160405280600073ffffffffffffffffffffffffffffffffffffffff1681526020016000815260200160001515815260200160008152602001600081525090565b604051806060016040528060608152602001600015158152602001606081525090565b6000604051905090565b600080fd5b600080fd5b600073ffffffffffffffffffffffffffffffffffffffff82169050919050565b60006127a58261277a565b9050919050565b6127b58161279a565b81146127c057600080fd5b50565b6000813590506127d2816127ac565b92915050565b6000819050919050565b6127eb816127d8565b81146127f657600080fd5b50565b600081359050612808816127e2565b92915050565b60008060006060848603121561282757612826612770565b5b6000612835868287016127c3565b9350506020612846868287016127c3565b9250506040612857868287016127f9565b9150509250925092565b60008115159050919050565b61287681612861565b82525050565b6000602082019050612891600083018461286d565b92915050565b600080604083850312156128ae576128ad612770565b5b60006128bc858286016127c3565b92505060206128cd858286016127f9565b9150509250929050565b6128e08161279a565b82525050565b6128ef816127d8565b82525050565b600060a08201905061290a60008301886128d7565b61291760208301876128e6565b612924604083018661286d565b61293160608301856128e6565b61293e60808301846128e6565b9695505050505050565b600080fd5b600080fd5b6000601f19601f8301169050919050565b7f4e487b7100000000000000000000000000000000000000000000000000000000600052604160045260246000fd5b61299b82612952565b810181811067ffffffffffffffff821117156129ba576129b9612963565b5b80604052505050565b60006129cd612766565b90506129d98282612992565b919050565b600067ffffffffffffffff8211156129f9576129f8612963565b5b612a0282612952565b9050602081019050919050565b82818337600083830152505050565b6000612a31612a2c846129de565b6129c3565b905082815260208101848484011115612a4d57612a4c61294d565b5b612a58848285612a0f565b509392505050565b600082601f830112612a7557612a74612948565b5b8135612a85848260208601612a1e565b91505092915050565b600080600080600060a08688031215612aaa57612aa9612770565b5b6000612ab8888289016127c3565b9550506020612ac9888289016127c3565b9450506040612ada888289016127c3565b9350506060612aeb888289016127f9565b925050608086013567ffffffffffffffff811115612b0c57612b0b612775565b5b612b1888828901612a60565b9150509295509295909350565b600081519050919050565b600082825260208201905092915050565b60005b83811015612b5f578082015181840152602081019050612b44565b60008484015250505050565b6000612b7682612b25565b612b808185612b30565b9350612b90818560208601612b41565b612b9981612952565b840191505092915050565b60006060820190508181036000830152612bbe8186612b6b565b9050612bcd602083018561286d565b8181036040830152612bdf8184612b6b565b9050949350505050565b612bf281612861565b8114612bfd57600080fd5b50565b600081359050612c0f81612be9565b92915050565b60008060408385031215612c2c57612c2b612770565b5b6000612c3a858286016127f9565b9250506020612c4b85828601612c00565b9150509250929050565b600060208284031215612c6b57612c6a612770565b5b6000612c79848285016127f9565b91505092915050565b600060e082019050612c97600083018a6128d7565b612ca460208301896128d7565b612cb160408301886128d7565b612cbe60608301876128e6565b8181036080830152612cd08186612b6b565b9050612cdf60a083018561286d565b612cec60c083018461286d565b98975050505050505050565b60008060008060808587031215612d1257612d11612770565b5b6000612d20878288016127c3565b9450506020612d31878288016127f9565b9350506040612d42878288016127f9565b9250506060612d53878288016127f9565b91505092959194509250565b6000602082019050612d7460008301846128e6565b92915050565b6000602082019050612d8f60008301846128d7565b92915050565b600080600060608486031215612dae57612dad612770565b5b600084013567ffffffffffffffff811115612dcc57612dcb612775565b5b612dd886828701612a60565b9350506020612de986828701612c00565b925050604084013567ffffffffffffffff811115612e0a57612e09612775565b5b612e1686828701612a60565b9150509250925092565b600060208284031215612e3657612e35612770565b5b6000612e44848285016127c3565b91505092915050565b600060c082019050612e6260008301896128d7565b612e6f60208301886128d7565b612e7c60408301876128e6565b8181036060830152612e8e8186612b6b565b9050612e9d608083018561286d565b612eaa60a083018461286d565b979650505050505050565b7f41757468204572726f7221000000000000000000000000000000000000000000600082015250565b6000612eeb600b83612b30565b9150612ef682612eb5565b602082019050919050565b60006020820190508181036000830152612f1a81612ede565b9050919050565b7f4e487b7100000000000000000000000000000000000000000000000000000000600052603260045260246000fd5b7f4c65617365207061737369766521000000000000000000000000000000000000600082015250565b6000612f86600e83612b30565b9150612f9182612f50565b602082019050919050565b60006020820190508181036000830152612fb581612f79565b9050919050565b6000819050919050565b7f4e487b7100000000000000000000000000000000000000000000000000000000600052601160045260246000fd5b600061300082612fbc565b915061300b83612fbc565b925082820390508181126000841216828213600085121516171561303257613031612fc6565b5b92915050565b600061304382612fbc565b91507f8000000000000000000000000000000000000000000000000000000000000000820361307557613074612fc6565b5b816000039050919050565b600060608201905061309560008301866128d7565b6130a260208301856128e6565b6130af604083018461286d565b949350505050565b7f4e487b7100000000000000000000000000000000000000000000000000000000600052602260045260246000fd5b600060028204905060018216806130fe57607f821691505b602082108103613111576131106130b7565b5b50919050565b60008190508160005260206000209050919050565b60006020601f8301049050919050565b600082821b905092915050565b6000600883026131797fffffffffffffffffffffffffffffffffffffffffffffffffffffffffffffffff8261313c565b613183868361313c565b95508019841693508086168417925050509392505050565b6000819050919050565b60006131c06131bb6131b6846127d8565b61319b565b6127d8565b9050919050565b6000819050919050565b6131da836131a5565b6131ee6131e6826131c7565b848454613149565b825550505050565b600090565b6132036131f6565b61320e8184846131d1565b505050565b5b81811015613232576132276000826131fb565b600181019050613214565b5050565b601f8211156132775761324881613117565b6132518461312c565b81016020851015613260578190505b61327461326c8561312c565b830182613213565b50505b505050565b600082821c905092915050565b600061329a6000198460080261327c565b1980831691505092915050565b60006132b38383613289565b9150826002028217905092915050565b6132cc82612b25565b67ffffffffffffffff8111156132e5576132e4612963565b5b6132ef82546130e6565b6132fa828285613236565b600060209050601f83116001811461332d576000841561331b578287015190505b61332585826132a7565b86555061338d565b601f19841661333b86613117565b60005b828110156133635784890151825560018201915060208501945060208101905061333e565b86831015613380578489015161337c601f891682613289565b8355505b6001600288020188555050505b505050505050565b60006133a0826127d8565b91506133ab836127d8565b92508282039050818111156133c3576133c2612fc6565b5b92915050565b60006080820190506133de60008301876128d7565b81810360208301526133f08186612b6b565b90506133ff60408301856128e6565b61340c606083018461286d565b95945050505050565b6000613420826127d8565b91507fffffffffffffffffffffffffffffffffffffffffffffffffffffffffffffffff820361345257613451612fc6565b5b600182019050919050565b7f4f6e6c79204f776e65722063616e20646f210000000000000000000000000000600082015250565b6000613493601283612b30565b915061349e8261345d565b602082019050919050565b600060208201905081810360008301526134c281613486565b9050919050565b7f7573657220697320696e20626c61636b6c697374000000000000000000000000600082015250565b60006134ff601483612b30565b915061350a826134c9565b602082019050919050565b6000602082019050818103600083015261352e816134f2565b9050919050565b7f72656e74657220616e64206c6573736f722063616e206e6f742062652073616d60008201527f6521000000000000000000000000000000000000000000000000000000000000602082015250565b6000613591602283612b30565b915061359c82613535565b604082019050919050565b600060208201905081810360008301526135c081613584565b9050919050565b7f54696d657374616d70204572726f720000000000000000000000000000000000600082015250565b60006135fd600f83612b30565b9150613608826135c7565b602082019050919050565b6000602082019050818103600083015261362c816135f0565b9050919050565b600060408201905061364860008301856128d7565b61365560208301846128e6565b939250505056fea2646970667358221220d9c8ecb00441034dbe803ab3d1f3e98f261864f95714e037126d742086850a6a64736f6c63430008130033",
  "linkReferences": {},
  "deployedLinkReferences": {}
}